:020000040800F2
:1000000000000320E5270008811800088318000875
:1000100091180008931800089518000800000000C7
:100020000000000000000000000000009718000819
:1000300099180008000000009B1800089D1800088F
:10004000A91800083928000839280008B91800083C
:1000500039280008C118000839280008C31800080A
:100060003928000839280008CD1800083928000868
:1000700039280008392800083928000839280008DC
:1000800039280008392800083928000839280008CC
:10009000392800083928000839280008D71800082E
:1000A00039280008392800083928000839280008AC
:1000B000392800083928000839280008392800089C
:1000C000392800083928000839280008392800088C
:1000D000392800083928000839280008392800087C
:1000E000E1180008392800083928000839280008D4
:1000F000FD180008051900080D1900083928000826
:10010000392800083928000839280008392800084B
:10011000392800083928000839280008392800083B
:10012000392800083928000839280008392800082B
:0C01300039280008392800083928000888
:1001400010B5054C237833B9044B13B10448AFF311
:1001500000800123237010BDF80100200000000082
:10016000DC89000808B5034B1BB103490348AFF312
:10017000008008BD00000000FC010020DC890008B0
:1001800001F0FF01102A2BDB10F0070F08D010F848
:10019000013B013A8B422DD010F0070F42B3F6D14C
:1001A000F0B441EA012141EA014122F007047FF065
:1001B00000070023F0E80256083C85EA010586EABC
:1001C000010685FA47F5A3FA87F586FA47F6A5FAF8
:1001D00087F68EB9EED1F0BC01F0FF0102F0070204
:1001E00032B110F8013B013A83EA010313B1F8D1AF
:1001F0000020704701387047002D06BF3546033890
:10020000073815F0010F07D1013015F4807F02BFC8
:10021000013015F4C03F0130F0BC0138704700BF19
:1002200053B94AB9002908BF00281CBF4FF0FF315D
:100230004FF0FF3000F074B9ADF1080C6DE904CE59
:1002400000F006F8DDF804E0DDE9022304B07047B1
:100250002DE9F047089D04468E46002B4DD18A4279
:10026000944669D9B2FA82F252B101FA02F3C2F1AC
:10027000200120FA01F10CFA02FC41EA030E94403D
:100280004FEA1C48210CBEFBF8F61FFA8CF708FB5E
:1002900016E341EA034306FB07F199420AD91CEB36
:1002A000030306F1FF3080F01F81994240F21C8168
:1002B000023E63445B1AA4B2B3FBF8F008FB1033B0
:1002C00044EA034400FB07F7A7420AD91CEB0404E5
:1002D00000F1FF3380F00A81A74240F207816444B5
:1002E000023840EA0640E41B00261DB1D44000233A
:1002F000C5E900433146BDE8F0878B4209D9002D9E
:1003000000F0EF800026C5E9000130463146BDE827
:10031000F087B3FA83F6002E4AD18B4202D3824291
:1003200000F2F980841A61EB030301209E46002D40
:10033000E0D0C5E9004EDDE702B9FFDEB2FA82F295
:10034000002A40F09280A1EB0C014FEA1C471FFAF3
:100350008CFE0126200CB1FBF7F307FB131140EADA
:1003600001410EFB03F0884208D91CEB010103F1A7
:10037000FF3802D2884200F2CB804346091AA4B269
:10038000B1FBF7F007FB101144EA01440EFB00FE3D
:10039000A64508D91CEB040400F1FF3102D2A645A2
:1003A00000F2BB800846A4EB0E0440EA03409CE741
:1003B000C6F12007B34022FA07FC4CEA030C20FAEE
:1003C00007F401FA06F31C43F9404FEA1C4900FA0E
:1003D00006F3B1FBF9F8200C1FFA8CFE09FB18118B
:1003E00040EA014108FB0EF0884202FA06F20BD9FE
:1003F0001CEB010108F1FF3A80F08880884240F24E
:100400008580A8F102086144091AA4B2B1FBF9F091
:1004100009FB101144EA014100FB0EFE8E4508D98C
:100420001CEB010100F1FF346CD28E456AD9023811
:10043000614440EA0840A0FB0294A1EB0E01A142F6
:10044000C846A64656D353D05DB1B3EB080261EB64
:100450000E0101FA07F722FA06F3F1401F43C5E93E
:10046000007100263146BDE8F087C2F12003D84074
:100470000CFA02FC21FA03F3914001434FEA1C47B6
:100480001FFA8CFEB3FBF7F007FB10360B0C43EAA8
:10049000064300FB0EF69E4204FA02F408D91CEB58
:1004A000030300F1FF382FD29E422DD90238634456
:1004B0009B1B89B2B3FBF7F607FB163341EA0341F6
:1004C00006FB0EF38B4208D91CEB010106F1FF3845
:1004D00016D28B4214D9023E6144C91A46EA00463C
:1004E00038E72E46284605E70646E3E61846F8E6CE
:1004F0004B45A9D2B9EB020864EB0C0E0138A3E717
:100500004646EAE7204694E74046D1E7D0467BE7F7
:10051000023B614432E7304609E76444023842E76F
:10052000704700BF00B587B000230093019302938A
:100530000393049305931948194A0260436083604A
:10054000C360036104224261037643760122C261E3
:1005500080F820308362C36280F83030436380F8D3
:10056000383003F057F990B90E4B009306230193EE
:10057000002302937F22039204220492059369468A
:10058000064803F035FA28B907B05DF804FB00F01F
:10059000EBFFE9E700F0E8FFF6E700BF14020020F8
:1005A000000004500800900C10B59CB004460021D7
:1005B0001791189119911A911B91502203A807F0D5
:1005C000CDF922681E4B9A4201D01CB010BD4FF4E9
:1005D00080630393062304934FF4003305934FF095
:1005E000007306934FF0005307934FF08053089326
:1005F000129303A804F06BFFF0B94FF0B043DA6C2C
:1006000042F40052DA64DA6C02F400520292029A66
:10061000DA6C42F00402DA64DB6C03F00403019349
:10062000019B0C231793032318930023199317A9F5
:10063000044803F01DFEC8E700F096FFDDE700BFA9
:10064000000004500008004810B588B00DF1040CFB
:10065000094C0FCCACE80F0094E80700ACE80300AD
:100660002CF8022B120C8CF8002006F0D1FF01A808
:1006700006F0B1FC08B010BDF489000882B04FF05C
:10068000B0431A6D42F480121A651B6D03F4801397
:100690000193019B0A4B3F229A609A615A6842F487
:1006A0007C125A605A6942F47C125A615A6842F0CC
:1006B0003F025A605A6942F03F025A6102B07047E5
:1006C000000C0058054BCA225A6253225A629A689B
:1006D00022F007029A60FF225A6270470028004009
:1006E000704708B54FF0B043D3F8943013F0806FE3
:1006F00018D04FF0B043D3F8943013F0805F11D18D
:1007000003F0A8FF03F0A6FF4FF0B043D3F890200A
:1007100042F48032C3F89020D3F8902022F4803243
:10072000C3F8902008BD08B5FFF7DBFFFFF7A6FF71
:1007300008BD000008B5002006F02AFC68B18179E8
:100740004FF0B042054BC2F89C30D2F89C3023F4F5
:100750007C5343EA0123C2F89C3008BDFECAFECA9E
:1007600008B54FF0B042936843F40043936006F03D
:1007700075FF054AD2F8803023F0070343F00403E5
:10078000C2F8803008BD00BF0004005810B588B022
:1007900006F042FE0F4A0021042007F097F80E4CA5
:1007A00000940E4B019369460D4806F0CFFC04F50A
:1007B0008673029304F50673039304F54974049455
:1007C00040F23C53059302A806F0F0FE06F020FE2E
:1007D00008B010BD71710008F8010320E10600089F
:1007E0003D08000800B585B00023009301930293F3
:1007F000ADF80C3043685B7B23B1012B19D005B0F9
:100800005DF804FBFFF720FF0D238DF800307F23F8
:100810008DF80230084B1B681B0CADF80C30684695
:1008200006F0F8FB01F08AFB0021012006F020FF12
:10083000E5E700230370E2E7002004E04368B3F833
:100840000B30B3F5124F00D0704710B584B004469A
:10085000684606F0EDFB2046FFF7C4FF04B010BD6C
:1008600008B5044B4FF400421A61FFF75CFFFFF735
:1008700061FF08BD00400058034AD2F8903043F0B1
:100880005003C2F8903070470008005808B5FFF7D1
:10089000F3FFFFF717FF08BD08B5FFF7F7FFFFF7F6
:1008A0005FFF0349002000F055FBFFF76FFF08BD15
:1008B000D003002038B5044602F09AFF0546B4F193
:1008C000FF3F09D002F0A0FF044405E0054A136988
:1008D00023F00403136130BF02F08AFF401BA042E3
:1008E000F4D338BD00ED00E008B54FF0FF3006F05E
:1008F0002FFF08BD704708B54FF0FF3006F028FF06
:1009000008BD08B50021042006F0C8FE08BD08B5E2
:10091000022006F0F1FE08BD08B5022006F0AAFF8D
:1009200008BD000008B50848084B036000230371A8
:100930004371436183610123036203F039FB00B912
:1009400008BD00F011FEFBE77802002000300240F5
:100950000268094B9A4200D0704782B04FF0B04312
:100960009A6C42F480529A649B6C03F48053019316
:10097000019B02B0704700BF003002402DE9F04FEC
:100980008BB00024059406940794089409944FF0C2
:10099000B043DA6C42F00402DA64DA6C02F004026A
:1009A0000492049ADA6C42F00202DA64DA6C02F021
:1009B00002020392039ADA6C42F00102DA64DA6C02
:1009C00002F001020292029ADA6C42F01002DA643A
:1009D000DA6C02F010020192019ADA6C42F008021D
:1009E000DA64DB6C03F008030093009B544F22464B
:1009F00042F25001384603F015FD224610214FF017
:100A0000904003F00FFDDFF840A122461721504629
:100A100003F008FDDFF8349122460121484603F037
:100A200001FD42F2500305930125069507940894B1
:100A300005A9384603F01CFC05954FF404130693F2
:100A4000079505A94FF0904003F012FC042305938D
:100A50004FF488160696079405A94FF0904003F0CE
:100A600007FC4FF0100BCDF814B0069507940894CE
:100A700005A94FF0904003F0FBFB4FF40263059390
:100A80000696079405A9384603F0F2FB4FF01708C5
:100A9000CDF8148006950794089405A9504603F0F4
:100AA000E7FBCDF814B04FF444130693079405A95F
:100AB000244803F0DDFB4FF440430593069607946A
:100AC00005A9504603F0D4FB4FF4806305930694C8
:100AD000079405A9384603F0CBFB059506950794C6
:100AE000089405A9484603F0C3FB02230593069624
:100AF000079305A9484603F0BBFB22462146072081
:100B000003F0CEF9072003F003FA224621460A201B
:100B100003F0C6F90A2003F0FBF9224621464046BD
:100B200003F0BEF9404603F0F3F92246214628209F
:100B300003F0B6F9282003F0EBF90BB0BDE8F08F15
:100B4000000800480010004800040048000C00485D
:100B5000064A936A9BB2906A80B203E0034B9A6A9A
:100B6000034690B28342F9D1704700BF002800408D
:100B700010B401EB41020F4B03EBC2035B7DDBB210
:100B8000062B05D003EB43020A4C04EBC20210759E
:100B9000084A00EB400C02EBCC0C8CF815308CF8BA
:100BA000141001EB410102EBC10148755DF8044BE3
:100BB000704700BF84000020174B93F89030DBB2E1
:100BC0008B421DD0144B01EB410203EBC202127D9C
:100BD0005FFA82FC02EB420203EBC202507500EBAB
:100BE000400203EBC202517500EB400203EBC2026C
:100BF00082F814C001EB410103EBC1031875704783
:100C0000054B00EB400203EBC202517501EB4101C1
:100C100003EBC101087570478400002010B4254B18
:100C200093F89030DBB283422CD0224C00EB400290
:100C300004EBC20292F814C0537DDBB2527DD2B2F3
:100C40000CEB4C0C04EBCC046275062B0BD0194A50
:100C500000EB400402EBC404247DE4B203EB430345
:100C600002EBC3031C75134B00EB400003EBC00009
:100C70000122027393F89030DBB2062B11D05DF89D
:100C8000044B70470B4B93F89020D2B283F891201D
:100C900000EB400203EBC202527DD2B283F89020F7
:100CA000E1E70029EBD1034B4FF0FF32C3F894206A
:100CB000E5E700BF8400002008B5124BD3F894305C
:100CC000B3F1FF3F02D1002080B208BDFFF740FF23
:100CD0000C4BD3F8943083420BD30A4BD3F89430A7
:100CE0001B1A094A107803FB00F0084B1B78D84008
:100CF000EAE7074B1B881B1A024AD2F89400034408
:100D0000EFE700BF840000209C020020A202002028
:100D1000A002002070B50446334B93F89030DBB24C
:100D2000062B14D1304B93F89020D2B283F8912047
:100D300083F8900000EB400403EBC40406226275C4
:100D40004FF0FF32C3F894200025284670BDFFF70E
:100D5000B3FF0546244B04EB440203EBC202916847
:100D60000144916004EB440203EBC202906893F8E3
:100D7000902002EB420203EBC2039B68834225D81A
:100D8000194A92F89030D9B203EB430302EBC30344
:100D90005B7DDBB20CE0144A01EB410102EBC101C7
:100DA0004B7DD9B203EB430302EBC3035B7DDBB2A4
:100DB000062B07D003EB43030B4A02EBC3039B68EC
:100DC0008342E8D92046FFF7D3FEBEE7064E96F8E9
:100DD00090102046FFF7F0FE96F89030DBB286F8D0
:100DE000913086F89040B0E78400002010B560B3E1
:100DF0000446012832D9013CA4B21B4B1B681B6876
:100E0000DA6812F0040FF8D0DA68D2B262F49062B5
:100E1000DA60164B4FF40022DA60032003F0BAF8D0
:100E2000134A53691B0C1B041C435461FFF790FECB
:100E3000104BC3F894000C4B1B681A68936843F47A
:100E400080639360AFF3008010BDFFF781FE094B14
:100E5000C3F89400032003F08FF8F5E7064B1B78E6
:100E6000012BC8D1C9E700BFA40200200008005828
:100E70000028004084000020A202002038B5314B39
:100E80009B6813F4806F06D02F4B1B681B68DB68D0
:100E900013F0040FF8D12C4B1B681A68936823F4E5
:100EA00080639360294A92F89030DCB203EB4303ED
:100EB00002EBC3039D68FFF7FFFE8446A84205D9F5
:100EC000224B012283F89820002026E0204B1B882B
:100ED00010FA83F3AB4207D21D4B188880B21B4B2C
:100EE000002283F8982018E0A8B2A0EB0C0080B292
:100EF000164B012283F898200FE004EB4404134AB8
:100F000002EBC404A268A2EB0C02A26003EB430351
:100F10000E4A02EBC3035C7DE4B2062C0FD02346DD
:100F200004EB4402094901EBC20292689445E4D9FA
:100F300004EB440401EBC4040022A260E6E7FFF7DF
:100F400055FF38BD00280040A40200208400002086
:100F50009E02002010B54C4B19600B68CA225A62E1
:100F60000B6853225A6249498B6843F020038B6017
:100F70008B6803F00703C3F10403DAB2444B1A7021
:100F80000B6903F4FE034FF4FE0191FAA1F100296D
:100F900032D0B1FA81F1CB40DBB20133DBB23D4953
:100FA0000B703A490969C1F30E0101313A4C2180B5
:100FB000013901FB03F3A3F5A073D3404FF6FE7292
:100FC00093421BD9354B4FF6FF721A80344B1A6887
:100FD00042F400221A60D3F8802042F40022C3F8C1
:100FE0008020002845D12F4B012283F898204FF014
:100FF000FF32C3F894200EE02021CCE79BB2274AB1
:101000001380E3E700EB4002264B03EBC203002210
:101010001A730130C0B20528F4D9224B062283F896
:101020009020194C226811688B6823F480638B60D0
:101030001268D368DBB263F49063D360184B4FF44B
:101040000022DA60032002F0A5FF23681A68936883
:1010500043F4804393600C4B1B681B68FF225A6269
:1010600000220321084602F01BFF032002F050FF7C
:1010700010BD054B1B681B68DB6813F4806FEAD05A
:10108000032002F079FFE6E7A402002000280040D8
:10109000A20200209C020020A00200209E0200204C
:1010A000000800588400002038B50446EFF310858E
:1010B00072B6032002F03AFF294B1B681A68CA2156
:1010C00051621B6853225A6204EB4402254B03EB26
:1010D000C2031B7BDBB2022B0AD0214B1B681B68AF
:1010E000FF225A62032002F013FF85F3108838BDF7
:1010F00000212046FFF792FD1A4B93F89030DBB2A7
:10110000062B08D0174A92F89120D2B29A42E4D026
:10111000FFF7B4FEE1E7144B9B6813F4806F06D031
:101120000F4B1B681B68DB6813F0040FF8D10C4BE6
:1011300019680A68936823F4806393600B68DA681F
:1011400012F0040FFAD0DA68D2B262F49062DA6078
:10115000064B4FF40022DA60032002F01BFFBCE7CD
:10116000A40200208400002000280040000800584D
:10117000F8B504460D4600EB4002234B03EBC203D7
:101180001B7BDBB2022B38D0EFF3108672B6032044
:1011900002F0CCFE1D4B1B681A68CA2151621B6805
:1011A00053225A62184F04EB440307EBC303022295
:1011B0001A739D605D602046FFF7ACFD97F8903094
:1011C000DBB297F89120D2B29A4219D10E4B04EBC0
:1011D000440203EBC2029268101A04EB440403EBCE
:1011E000C404A060094B1B681B68FF225A620320DD
:1011F00002F08EFE86F31088F8BDFFF755FFC3E7B7
:10120000FFF73CFEEEE700BF84000020A4020020B0
:1012100008B5904708BD0000F8B5EFF3108472B62A
:10122000364B19680B68CA225A620B6853225A62FD
:101230000A68936823F480639360314A92F890308F
:10124000DDB203EB4303D8000244137BDBB2022B75
:1012500015D00B68DA6812F0040FFAD0DA68D2B24F
:1012600062F49062DA60274B4FF40022DA6084F374
:101270001088224B1B681B68FF225A62F8BD204B66
:1012800005EB4501CA0099189F580E6993F89830EC
:1012900073B34B7BDBB2012B12D084F3108828464A
:1012A000FFF702FF154B1B681A68CA2151621B68C1
:1012B00053225A623A4629463046FFF7A9FFD8E73B
:1012C00001212846FFF7AAFC84F3108805EB4503AB
:1012D000DA000B4B134459682846FFF749FF074BC8
:1012E0001B681A68CA2151621B6853225A62E1E7DF
:1012F000FFF7C4FD84F31088BBE700BFA402002001
:10130000840000200008005808B51548154B0360FC
:10131000A3F13E53A3F57D23A3F24463436000236E
:1013200083600122C260036143618361C361036220
:1013300003F09CF850B90021094803F0F5F840B9D2
:101340000021074803F01EF930B908BD00F00CF980
:10135000F1E700F009F9F3E700F006F9F5E700BF5F
:10136000A80200200054004008B51548154B036042
:10137000A3F13E53A3F57D23A3F64463436000230A
:1013800083600122C260036143618361C3610362C0
:1013900003F06CF850B90021094803F0C5F840B9D2
:1013A0000021074803F0EEF830B908BD00F0DCF882
:1013B000F1E700F0D9F8F3E700F0D6F8F5E700BF61
:1013C000FC020020005C00402DE9F0419EB0044684
:1013D000002119911A911B911C911D91502205A871
:1013E00006F0BCFA2368404A934205D03F4A934234
:1013F0004AD01EB0BDE8F081042305934FF440337A
:101400000D9305A804F063F800283AD14FF0B044DA
:10141000E36C43F00103E364E36C03F00103029324
:10142000029BE36C43F00203E364E36C03F002030A
:101430000193019B4FF4007319934FF01208CDF8FC
:10144000688001271B9700261C9604251D9519A965
:101450004FF0904002F00CFF80231993CDF8688084
:101460001B971C961D9519A9214802F001FFA36D39
:1014700043F40013A365A36D03F400130093009BD2
:10148000B7E700F071F8C1E7082305934FF4401364
:101490000E9305A804F01BF810BB4FF0B044E36CAA
:1014A00043F00403E364E36C03F004030493049B3C
:1014B0000323199312231A9301231B9300231C93D4
:1014C00004231D9319A90B4802F0D2FEA36D43F427
:1014D0000003A365A36D03F400030393039B88E754
:1014E00000F042F8D9E700BF00540040005C004023
:1014F000000400480008004808B50548054B036093
:1015000003F08AF800B908BD00F02EF8FBE700BF31
:1015100050030020000C00580268124B9A4200D081
:10152000704700B583B04FF0B0431A6D42F480129B
:101530001A651B6D03F480130193019B0022114671
:101540002C2002F0ADFC2C2002F0E2FC002211461F
:101550002D2002F0A5FC2D2002F0DAFC03B05DF88E
:1015600004FB00BF000C005872B6FEE700B59BB04C
:101570004822002108A806F0F1F900230193029304
:101580000393049305930693079303F063F84FF0D6
:10159000B042D2F8903023F01803C2F8903002F530
:1015A0008062136823F4C06343F40073136013680C
:1015B00003F4C0630093009B072308934FF4803328
:1015C000099301230A934FF480730B9340230C93E8
:1015D00002231393032314931023159308231693C4
:1015E0004FF4003317934FF0005319934FF00073EB
:1015F000189308A803F0B4F988B96F230193032165
:10160000029100230393049305938022069207938B
:1016100001A803F031FD20B91BB05DF804FBFFF712
:10162000A3FFFFF7A1FF00B595B050220021684647
:1016300006F094F94FF4405300934FF48043119314
:1016400010231393684603F042FF10B915B05DF8FC
:1016500004FBFFF789FF000008B5194C204601F094
:1016600041FE01F017FE02F0A1F8FFF7F9F8FFF7CD
:101670007DFFFFF7D8FFFFF73FFFFFF77FF9FFF789
:1016800073FEFFF741FE00F01BFA00F055FAFEF77B
:1016900049FF00F017F800F0D3F9FFF743F900F025
:1016A00071F800F071F8204601F092FCFFF7F4F8B1
:1016B00001F014FEFFF718F901F082FCFAE700BF11
:1016C0005916000808B50948094B0360FF23436019
:1016D000012282600023C36002614361836102F0E2
:1016E000F5FF00B908BDFFF73FFFFBE78C030020C3
:1016F000001000A030B589B0002303930493059334
:101700000693079302681D4B9A4201D009B030BD81
:101710004FF0B0431A6D42F480721A651A6D02F4EC
:1017200080720292029ADA6C42F00202DA64DA6C97
:1017300002F002020192019ADA6C42F00102DA64CC
:10174000DB6C03F001030093009B4FF47063039381
:10175000022504950A24079403A9094802F088FD8C
:10176000C02303930495002305930693079403A9CC
:101770004FF0904002F07CFDC8E700BF001000A0D1
:10178000000400487047000008B50F480F4B036085
:10179000002343600F22826047F6FF72C26003613C
:1017A0008361C361436104F05CF830B900221146E3
:1017B000054804F0C3F818B908BDFFF7D5FEF5E7F2
:1017C000FFF7D2FEF8E700BFD0030020002800405A
:1017D00010B596B004465022002102A806F0BEF8CB
:1017E0002268164B9A4201D016B010BD4FF4006328
:1017F00002934FF48073129302A803F068FEC8B9F5
:101800004FF0B043D3F8902042F40042C3F8902048
:101810009A6D42F480629A659B6D03F48063019334
:10182000019B00221146032002F03AFB032002F044
:101830006FFBD9E7FFF798FEE2E700BF0028004002
:1018400000B583B04FF0B0431A6D42F400221A6520
:101850001B6D03F400230193019B00221146052018
:1018600002F01EFB052002F053FB002211462E2041
:1018700002F016FB2E2002F04BFB03B05DF804FBD8
:10188000FEE708B5002001F02DFD01F047FBFEE763
:10189000FEE7FEE7FEE770477047704708B501F0C6
:1018A0009BFF01F091FB08BD08B5024804F053FE10
:1018B00008BD00BF6405002008B5FFF7ADFC08BDFA
:1018C000704708B5022002F0B3FD08BD08B510202E
:1018D00002F0AEFD08BD08B5202002F0A9FD08BD4C
:1018E00008B54FF4006002F0A3FD4FF4804002F011
:1018F0009FFD4FF4004002F09BFD08BD08B500F0CD
:1019000039FF08BD08B500F0D5FE08BD08B502F0E6
:101910009FFD08BD0120704708B505F0E7FF1623BD
:1019200003604FF0FF3008BD08B54FF0FF31FFF7FF
:10193000F3FFFEE770B50C461646002506E0AFF350
:101940000080214601F8010B01350C46B542F6DB5B
:10195000304670BD70B50C461646002504E014F8FC
:10196000010BAFF300800135B542F8DB304670BDA6
:101970004FF0FF3070474FF400534B60002070472A
:10198000012070470020704710B503460C4A0D49EE
:101990000D48006840B10C4800680344521A934255
:1019A00006D8094A136010BD0748084C0460F2E7E6
:1019B00005F09CFF0C2303604FF0FF30F3E700BFFE
:1019C0000000032000080000F4030020F0090020BC
:1019D0000368B3F1804F00D0704782B04FF0B0433E
:1019E0009A6D42F001029A659B6D03F00103019329
:1019F000019B02B0704700B587B0002301930293AA
:101A00000393049305930368B3F1804F02D007B0AA
:101A10005DF804FB4FF0B043DA6C42F00102DA6487
:101A2000DB6C03F001030093009B022301930293FC
:101A30000123059301A94FF0904002F019FCE6E75D
:101A400000B58BB00023079308930993009301938B
:101A50000293039304930593069318484FF0804232
:101A60000260436083604FF0FF32C26003618361B4
:101A700004F020F9C8B900230793099307A90F4878
:101A800004F022FAA0B9602300930023019302938B
:101A9000049304226946094804F078F958B90748C4
:101AA000FFF7A9FF0BB05DF804FBFFF75DFDE2E770
:101AB000FFF75AFDE7E7FFF757FDF0E7F8030020CF
:101AC00008B51B481B4B03604FF4FA234360002307
:101AD0008360C36003610C224261836103624362DD
:101AE000302282624FF48052C2634FF4005202648B
:101AF000436604F058FC70B900210D4804F0CBFC9B
:101B000060B900210A4804F0EBFC50B9084804F021
:101B1000A3FC48B908BDFFF727FDEDE7FFF724FD5B
:101B2000EFE7FFF721FDF1E7FFF71EFDF2E700BF4A
:101B3000440400200080004008B51B481B4B036094
:101B40004FF4E133436000238360C36003610C22E0
:101B500042618361C36103624362302383624FF455
:101B60008053C3634FF40053036404F01CFC70B94A
:101B700000210D4804F08FFC60B900210A4804F0F0
:101B8000AFFC50B9084804F067FC48B908BDFFF73E
:101B9000EBFCEDE7FFF7E8FCEFE7FFF7E5FCF1E72B
:101BA000FFF7E2FCF2E700BFD40400200038014058
:101BB00070B5A0B0044600211B911C911D911E918F
:101BC0001F91502207A805F0C9FE2368444A93429A
:101BD00004D0444A934241D020B070BD0223079301
:101BE00007A803F074FC002835D14FF0B043DA6D3C
:101BF00042F00102DA65DA6D02F001020392039A03
:101C0000DA6C42F00102DA64DA6C02F0010202924C
:101C1000029ADA6C42F00202DA64DB6C03F002032F
:101C20000193019B08251B9502261C9600241D94F8
:101C30001E941F951BA94FF0904002F019FB43F230
:101C400020031B931C961D941E941F951BA92648C8
:101C500002F00EFBC0E7FFF787FCC6E701230793FE
:101C600007A803F034FC002836D14FF0B0431A6EB9
:101C700042F480421A661A6E02F480420692069A74
:101C8000DA6C42F00102DA64DA6C02F001020592C9
:101C9000059ADA6C42F00202DA64DB6C03F00203AC
:101CA0000493049B4FF4E0531B9302261C960024DC
:101CB0001D941E9407251F951BA94FF0904002F01C
:101CC000D7FA40231B931C961D941E941F951BA9A5
:101CD000054802F0CDFA7FE7FFF746FCC5E700BFF5
:101CE00000800040003801400004004808B5094861
:101CF000094B03600023436040238360C3604FF4BB
:101D00000073036104F011FC00B908BDFFF72CFC5F
:101D1000FBE700BF64050020002C004002680E4B6A
:101D20009A4200D0704700B583B04FF0B0439A6D2F
:101D300042F400629A659B6D03F400630193019B7A
:101D400000221146104602F0ABF8002002F0E0F845
:101D500003B05DF804FB00BF002C004008B5064B43
:101D600093F88030052B00D108BD04F006FC024B2F
:101D7000002283F88020F7E72001002000B583B01F
:101D8000054B0093054B01936946054805F030F873
:101D900003B05DF804FB00BF28000320BF1D00084E
:101DA000A51D000810B504464068083005F0ECFA9F
:101DB00010B10123237010BD00232370FBE708B589
:101DC00010B1012804D008BD032005F07BFCFAE720
:101DD000032005F085FCF6E708B50F4BD3F8802506
:101DE000B2F1FF3F10D0D3F884350C480270C2F333
:101DF000072242708370C3F30722C270C3F3074205
:101E000002711B0E437108BD002005F0C1F80028C7
:101E1000F9D10348F7E700BF0070FF1F7C050020E1
:101E2000D08B000870B588B00024ADF8184004F0DD
:101E30004BFFFFF7D1FF02460621204604F0C4FE07
:101E40002A4A1021182004F0BFFE294A1021082038
:101E500004F0BAFE1821012004F0E6FE04F04DFD66
:101E60000DF11A03019307AB00930DF11E03082235
:101E70002146012004F08BFC1E4B009308232246D0
:101E8000BDF81C10BDF81E0004F009FE06AB00935F
:101E900002232246BDF81A10BDF81E0004F0FFFD13
:101EA00002221146204604F02FFF134D01262E700A
:101EB000304604F0DDFB6E7008232B7110226A712E
:101EC000EC700E49A960AC700494039102940192E5
:101ED0000093234632463146204604F0EFFBAB78B0
:101EE0000BB908B070BD04F0BEFCFAE7C08B000867
:101EF000B08B0008A48B00082001002007B201006D
:101F000000B589B00B4B83F8800000200690059047
:101F1000049003900290019000900346A02280213B
:101F200004F04CFB0449032004F070FC09B05DF898
:101F300004FB00BF200100200400002030B58FB05A
:101F4000EC461E4C0FCCACE80F000FCCACE80F00F9
:101F50000FCCACE80F0094E803008CE80300FFF717
:101F60000DFF0121022005F083FB154A002102200C
:101F700005F0ACFC684605F01FF8D8B9FFF752FF32
:101F800005F0ECF90F4C002584F880504FF6FF73F4
:101F9000E3820D4A2946012005F098FC062004F052
:101FA0006CFE00F0B1F8657625760120FFF7A8FFFA
:101FB0000FB030BDFFF7D8FAE0E700BF108A000885
:101FC000156E0008200100205D1D000808B543784B
:101FD0003E2B1CD0FF2B36D0052B01D0012008BD95
:101FE0008288244BDB8A9A420BD00120FFF788FFBE
:101FF0002148012303701F4BDB8A438000F072F8F5
:10200000ECE71C4B0022DA8283F88020EDE7C378EE
:10201000012BE3D1174B93F88030042B0ED0154BD6
:10202000052283F88020B0F80530124AD382124886
:1020300000220270438000F055F8CFE70D4B0622D6
:1020400083F88020EFE7B0F8033040F20242934279
:1020500009D040F209429342C0D10121054BD88AF0
:1020600004F022FCBAE70549024BD88A04F066FB6B
:10207000B4E700BF200100207805002007B201006E
:1020800008B50021022005F009FB08BD08B50120B4
:1020900005F032FB08BD08B5012005F0EBFB08BDDB
:1020A00008B50378023B042B09D8DFE803F00309E5
:1020B000080F150000221146032001F0B1F808BDF9
:1020C00000221146042001F0ABF8F8E70022114687
:1020D000052001F0A5F8F2E700221146062001F0E4
:1020E0009FF8ECE708B5037813B1012B06D008BDC3
:1020F00000221146012001F093F8F8E70022114672
:10210000022001F08DF8F2E77047000030B587B08B
:102110004378FF2B03D00024204607B030BD04468F
:10212000B0F8032093B2A3F60143172B00F2A78067
:10213000DFE803F00CA5A5A5A5A5A5A5A5A5A5A5C2
:10214000A5A5A5A5A5A56F4AA589A591B0F80720C5
:102150004E4B9B8802339A420CD04C4BDB880233A7
:102160009A421CD0494B5B8801339A4200F08B8025
:102170000024D1E7447B1CB1012C09D00124CBE71A
:1021800003238DF8083002A8FFF78AFF0124C3E774
:1021900002238DF8083002A8FFF782FFBCE7447BDA
:1021A0001CB1012C09D00124B6E706238DF80830B4
:1021B00002A8FFF775FF0124AEE705238DF808306C
:1021C00002A8FFF76DFFA7E7B0F807202F4B9B8809
:1021D00001339A420BD02D4BDB8801339A420CD04D
:1021E0002A4B1B8901339A420DD0002494E7B0F8A2
:1021F000050004F0C1FC01248EE7B0F8050004F0EE
:10220000BBFC012488E7B0F8050004F0B5FC01240C
:1022100082E7B0F807101D4B5B880133994201D06B
:10222000002479E700F10A050195437A0093002321
:102230001A46B0F8050004F067FC617A284601F000
:10224000FBF9012468E7B0F80710B0F8050004F0C6
:1022500093F9002460E700F10C030193C37A009323
:1022600000230122B0F80710B0F8050004F04CFC80
:1022700000231979052001F0DFF900244CE7044B15
:102280001A80002448E7012446E700BFA40100208B
:102290008205002010B582B0044C0090CBB2002221
:1022A000A188208804F0FBFB02B010BDA40100202F
:1022B00010B582B0044C0090CBB20022E188208897
:1022C00004F0EDFB02B010BDA40100202DE9F04F99
:1022D0008BB0A14805F04EF88F238DF81830E52318
:1022E0008DF81930B3238DF81A30D5238DF81B30B3
:1022F0002E238DF81C307F238DF81D304A238DF856
:102300001E3098238DF81F302A238DF82030482363
:102310008DF821307A238DF82230CC238DF82330AC
:1023200000248DF82440B0278DF825708DF82640C4
:102330008DF82740894B00930B23012206A9022028
:1023400004F0FDFA4FF019068DF81860ED258DF8B0
:1023500019506FF07D038DF81A306FF051018DF830
:102360001B108DF81C504FF021008DF81D004FF010
:102370004C0C8DF81EC06FF0620E8DF81FE04FF010
:10238000410A8DF820A04FF045098DF821904FF0BB
:1023900022088DF822804FF08E0B8DF823B04FF07D
:1023A00001038DF824308DF825708DF826408DF8C6
:1023B00027406A4B33F8020B059301230493102343
:1023C000039307230293019408230093644B1B7823
:1023D00006AA022104F003FB8DF818608DF819504D
:1023E0006FF07D028DF81A206FF051018DF81B10EF
:1023F0008DF81C504FF021008DF81D004FF04C0C53
:102400008DF81EC06FF0620E8DF81FE08DF820A0D1
:102410008DF821908DF822808DF823B002268DF85A
:1024200024608DF825708DF826408DF827404B4BA1
:1024300033F8040B0593012304931023039307231C
:102440000293019412230093464B1B7806AA31464F
:1024500004F0C5FA4FF019038DF818308DF81950B3
:102460006FF07D028DF81A206FF051018DF81B106E
:102470008DF81C504FF021008DF81D004FF04C0CD2
:102480008DF81EC06FF0620E8DF81FE08DF820A051
:102490008DF821908DF822808DF823B003238DF8DC
:1024A00024308DF825708DF826408DF827402B4B71
:1024B00033F8060B0593012304931023039307239A
:1024C0000293019412230093274B1B7806AA3146EE
:1024D00004F085FA4FF019038DF818308DF8195073
:1024E0006FF07D028DF81A206FF051018DF81B10EE
:1024F0008DF81C504FF021008DF81D004FF04C0C52
:102500008DF81EC06FF0620E8DF81FE08DF820A0D0
:102510008DF821908DF822808DF823B004238DF85A
:1025200024308DF825708DF826408DF827400B4B10
:1025300033F8080B059304941023039307230293A5
:1025400001940096094B1B7806AA314604F047FA1D
:102550000BB0BDE8F08F00BF0D210008A4010020E2
:102560000700002008000020090000200A000020C9
:1025700010B5064C636843F400236360044B1B688A
:1025800098474FF40023A36010BD00BF000C005813
:102590008405002082B04FF0B043D3F8502142F4BC
:1025A0008012C3F85021D3F8503103F48013019303
:1025B000019B0A4B1A6A42F400721A62D3F8D420C3
:1025C00042F40072C3F8D42040BF20BF044AD3684D
:1025D00043F40043D36002B0704700BF00080058C6
:1025E0000004005800B583B04FF0B0431A6D42F4B8
:1025F00080121A651B6D03F480130193019B094B34
:102600001A6842F001021A601A6842F480321A60B5
:102610002C2001F07DFC2D2001F07AFC03B05DF848
:1026200004FB00BF000C0058024A536823F001036A
:1026300053607047000C0058024B4FF480329A6090
:10264000704700BF000C005808B5044A536843F4B3
:102650000013536004F050FF08BD00BF000C005889
:1026600008B504F031FF024B01229A6008BD00BF9B
:10267000000C0058024A536823F00203536070476D
:10268000000C0058044B4FF400329A605A6822F450
:1026900000325A60704700BF000C005808B5044A69
:1026A000536843F40033536004F05AFF08BD00BF81
:1026B000000C005808B5144BDB6813F0020F04D16E
:1026C000114B5B6813F4003F14D00F4BDB6813F021
:1026D000080F04D10C4B5B6813F4002F0DD00A4B8C
:1026E000DB6813F0200F04D1074B5B6813F4001F65
:1026F00006D008BDFFF7D2FFFBE7FFF739FFF8E789
:10270000FFF7A2FFF5E700BF000C005808B504F082
:1027100035FF024B02229A6008BD00BF000C005832
:1027200008B5094BDB6813F0080F05D18047064B4D
:102730004FF400229A6008BD044B1860024A5368A7
:1027400023F400235360F6E7000C005884050020B2
:10275000024A536823F0080353607047000C005886
:1027600008B504F067FF024B08229A6008BD00BF5D
:10277000000C005808B5144BDB6913F0020F0AD1A6
:10278000114BDB6913F0010F0DD10F4BDB6913F017
:10279000080F10D108BD0C4B5B6813F0020FEFD18E
:1027A000FFF7B4FFF6E7084B5B6813F0010FECD1BD
:1027B000FFF756FFEEE7044B5B6813F0080FE9D113
:1027C000FFF7CEFFE6E700BF000C0058D458C45016
:1027D0000433C4188C42F9D3704703600430884234
:1027E000FBD370470C48854600F086FF0B480C4928
:1027F0000C4A0023FFF7EDFF0B480C490023FFF7BD
:10280000EEFF0B480B490023FFF7E9FF05F074F8D2
:10281000FEF722FFFEE70000000003200400002076
:1028200084000020308E0008F8010020EC09002010
:10283000E4010320670A0320FEE70AB10520704780
:102840000220704705207047002004E011F800C006
:1028500002F800C001309842F8D300207047000011
:1028600010B584B0B0F84030A0F86C3091423AD244
:10287000B1F1006F39D301F1784002F1784C204B6F
:10288000B3F8E0401F4B03EA842383422FD963450A
:102890002FD902230093000B0190521A120B013220
:1028A0000292194B93F82C3013F0040F13D103A9A3
:1028B000684601F0A3FC0446134B93F82C3013F048
:1028C000040F0CD1022C16D0032C16D004B1012415
:1028D000204604B010BD012004F08CFBE7E7002087
:1028E00004F088FBEEE70224F2E70A24F0E70A246A
:1028F000EEE70A24ECE70324EAE70424E8E700BF54
:102900000075FF1F00FC1F00880500202DE9F04323
:1029100083B0884617461E4600252DE0601C17F838
:1029200005C004F108030DEB030404F808CC0135DD
:10293000C4B2B54201D2072CF0D94FF47A7001F03D
:10294000D5FBDFF85090D9F8143043F00103C9F8F3
:102950001430009BC8F80030BFF36F8F019BC8F89C
:1029600004304FF47A7001F0C1FBD9F8143023F031
:102970000103C9F81430A044B54207D24FF0FF322A
:102980004FF0FF33CDE900230024D2E7002003B04D
:10299000BDE8F0830040005808B50139082906D881
:1029A000DFE801F0132516070D1F222A2A00052053
:1029B00023E001F075FB003818BF01201DE001F095
:1029C00087FB003818BF012017E0FFF78FF9FEE7FB
:1029D000012383F31088094B9A60002080F310884C
:1029E0000BE062B6002008E072B6002005E0104659
:1029F000FDF760FF002000E0002008BD00ED00E0D2
:102A0000034690B199B10B4A8260D86001610A4ACD
:102A100042610A4A42620A4A82620A4A82610A4A58
:102A2000C2610A4A026200207047082070470820ED
:102A3000704700BFD88B0008992900083B28000880
:102A400045280008492800080D29000861280008C9
:102A500038B5064C052384F82E3000231A4604218D
:102A600020466569A84784F82F0038BD88050020F6
:102A700038B5064C062384F82E3000231A4605216B
:102A800020466569A84784F82F0038BD88050020D6
:102A900038B50A46054C012384F82E300023014640
:102AA0002046256AA84784F82F0038BD88050020F5
:102AB00030B583B01346074C032284F82E20002241
:102AC00000920A4601462046A569A84784F82F00CF
:102AD00003B030BD8805002013460C4A92F82C2024
:102AE00012F0080F10D130B583B0084C022284F8E0
:102AF0002E20002200920A4601462046E569A8479A
:102B000084F82F0003B030BD0320704788050020F3
:102B1000154B93F82C3013F0080F22D070B582B00B
:102B200002460D464FF0000C07E012F80C300E4C38
:102B3000A16E0B44A3660CF1010CAC45F5D30A4C15
:102B4000042384F82E30002300932B46A16D2046E9
:102B5000E669B04784F82F00A36D2B44A36502B04B
:102B600070BD0120704700BF8805002010B50348E4
:102B7000446900231A460721A04710BD880500209C
:102B800010B50348446900231A460121A04710BD2F
:102B900088050020F8B5124B93F82C3013F0010F84
:102BA0001CD0104B5C68631E13F1030F01D9022087
:102BB00015E0FFF7DBFF0A4D6F690A4E002332462E
:102BC00008212846B8476F69002332460921284664
:102BD000B847A047FFF7D4FF012000E00D20F8BD63
:102BE000880500200000020838B50446FFF730FFD2
:102BF0000A4BA3600A4D0B492846FFF749FF1022F4
:102C000021462846FFF768FFFFF732FF10220649EA
:102C10002846FFF74DFF002038BD00BFD9EB87D90C
:102C20000000010801000108CC05002038B5114B57
:102C300093F82C3013F0080F1AD113F0010F01D1C3
:102C40000D2038BD0B4C04F14405102229460A48DA
:102C5000FFF72EFF002384F8453084F844302846DF
:102C6000FFF7C2FF08B10120EBE7FFF789FFFAE7A2
:102C70000320E6E78805002000000108144B93F8C4
:102C80002C3013F0080F21D113F0010F01D00D20CB
:102C9000704710B584B0102269460E48FFF708FF50
:102CA0009DF8003043F001038DF800306846FFF7CF
:102CB0009BFFFFF75BFF064844690023064A082193
:102CC000A047FFF75DFF012004B010BD032070474F
:102CD000880500200000010800000208154B93F849
:102CE0002C3013F0010F1CD070B506460D4613F0C2
:102CF000080F18D1C8B1D1B10E4C43F0080384F8C5
:102D00002C30FFF7A5FE0C48606506F1006101F567
:102D10000031E165A06525660023A366FFF7B8FED4
:102D200070BD0D2070470320FAE70220F8E702206B
:102D3000F6E700BF880500200000020808B50B4B2D
:102D400093F82C0010F0010F0ED010F0080000D105
:102D500008BDFFF78DFE054B93F82C206FF3C302DF
:102D600083F82C200020F3E70D20F1E788050020F0
:102D70000246B0F1FF3F1AD0B1F1FF3F18D008442E
:102D80000F4BB3F8E0C00F4B03EA8C2303F1006351
:102D900098420FD8B2F1006F0FD30023184603E01A
:102DA00012F803C0604401338B42F9D37047704777
:102DB000084670474FF0FF3070474FF0FF307047C4
:102DC0000075FF1F00FC1F0030B585B0234B93F842
:102DD0002C3013F0010F3FD013F0080F03D1012462
:102DE000204605B030BD102269461D48FFF760FE41
:102DF0001A4B9A6DDB6D9A420AD00124FFF738FE18
:102E0000164B93F82C206FF3C30283F82C20E7E7CE
:102E100002B3124A916E126E914201D00124EDE785
:102E20000E4D6C6D1C1B21460E48FFF7A1FF686616
:102E3000AB6E984201D00124E0E701930A4B029364
:102E4000039400248DF800408DF801406846FFF798
:102E5000CBFED3E70124D1E70D24C1E7880500208C
:102E600000000108000002086453104910B5274C07
:102E700094F82C3043F0010384F82C30102204F134
:102E800044012348FFF714FE216D2248FFF770FF2D
:102E90006066A36CC01A18BF012094F82C3060F350
:102EA000041384F82C30E36C1B4A9B1A18BF0123CF
:102EB00094F82C2063F3451284F82C2094F84520D4
:102EC00094F8443013F001030AD194F82C1011F057
:102ED000300F0AD194F84610114208D0002400E0C7
:102EE0000024E4B22BB974B910BD0024F9E7012421
:102EF000F7E7064890F844306FF3000300F8443FCA
:102F0000FFF772FEEFE7FFF745FEEDE788050020CB
:102F10000000010800000208D9EB87D938B50A4C37
:102F200004F14405102229460848FFF7C1FD94F832
:102F3000453043F0040384F845302846FFF754FE3B
:102F4000FFF71EFE38BD00BF880500200000010805
:102F5000034A92F82C3043F0040382F82C30704777
:102F6000880500200A4B93F82C3013F0020F0DD186
:102F7000074B93F82C2042F0020283F82C20054ADC
:102F80001A6058604FF47A72A3F84020002070470E
:102F900088050020F48B000838B50546014607482F
:102FA000FFF72EFD04462846FFF7DCFF044314F02C
:102FB000FF0F14BF0120002038BD00BF880500208E
:102FC00008B500F0D1F808BD08B500F0E1F808BD7B
:102FD0000020704770B51446094D2B4623F8020BAC
:102FE000084E02203060184604F0AAFCA11C316093
:102FF0002846FFF74FF9003818BF012070BD00BF09
:10300000A8070020A808002000B583B0074BD3F81C
:1030100098310093064B9B6E01930822694641202C
:10302000FFF7D8FF03B05DF804FB00BFF8050020F0
:103030008805002038B52C4B1B7A13F0200F20D0C8
:1030400013F0400F06D0284BB3F89041B3F88E31FF
:103050009C4217D1244BB3F8AA3193B9224BC82212
:10306000A3F8AA211B7A13F0400F05D01F4B93F849
:103070002C3013F0080F2ED11B4B93F90830002B86
:103080002CDB38BD04EB440E4FEACE0E0EF1080ED9
:10309000154B9E44164DAC46DEF80600DEF80A10CD
:1030A000DEF80E20DEF81230ACE80F00DEF8160075
:1030B000DEF81A10ACE8030018210E4B1960284600
:1030C000FFF7E8F80028C5D1013404F00F04064BDF
:1030D000A3F89041BEE7FFF797FFCDE7062106482A
:1030E000FFF7E6F8CDE700BFF805002088050020CF
:1030F000A8070020A808002000060020194B1B7A12
:1031000013F0020F2DD0174BB3F8A8314BBB10B5FD
:10311000144B9B7A042B09D0052B18D0032B1BD002
:10312000104B1A7A6FF341021A7207E00D4CD4F873
:103130009C11D4F89401FFF7D1FDE072094B1A7A83
:103140006FF341021A720022A3F8AA2110BDFFF703
:103150003BFE044BD872F1E7FFF768FD014BD872D4
:10316000ECE77047F805002008B5FFF7C7FFFFF749
:1031700061FF054B93F82C30C3F3C003034A117A67
:1031800063F38201117208BD88050020F805002054
:103190000C4BB3F8AA311BB1013B0A4AA2F8AA3181
:1031A000084BB3F8AC311BB1013B064AA2F8AC3175
:1031B000044BB3F8A8311BB1013B024AA2F8A83175
:1031C000704700BFF805002010B5144C247A14F0A5
:1031D000400F21D0114CB4F88EC10CEB4C0E04EB17
:1031E000CE04E081218200210BE012F801E00CEB1B
:1031F0004C000A4C04EBC000084480F812E0013196
:1032000089B2994201D21329EFD90CF1010C0CF0CB
:103210000F0C024BA3F88EC110BD00BFF8050020B3
:103220000138052833D8DFE800F003091B21272DDA
:10323000174A137A43F0200313727047144B1A7A1B
:103240006FF345121A72D2B26FF386121A72D2B2AB
:103250006FF3C7121A72D2B26FF304121A72704768
:103260000B4A137A43F0400313727047084B1A7AE3
:103270006FF386121A727047054A137A43F080037F
:1032800013727047024B1A7A6FF3C7121A727047A3
:10329000F805002010B50F4C237A43F00103237288
:1032A000FFF7E4FD0C4A92F82C30C3F30013617A67
:1032B00063F30001617292F8452002F00103C2F34A
:1032C00040010B43C2F380021343627A63F341026D
:1032D000627210BDF80500208805002008B5FFF7D0
:1032E00037FE08BD08B5044B044A1A6058601846FA
:1032F000FFF752FE002008BDF8050020EC8B000807
:103300000E4B93F82C3013F0010015D013F0080F7A
:1033100004D00B4B1B7A13F0020F0CD1084B1A7A16
:1033200042F002021A7203229A720020D8726422BA
:10333000A3F8A82170470320704700BF880500202C
:10334000F8050020234B1B7A13F0010F34D00246FE
:103350000C2933D113F0100F32D000681E494140C0
:103360001C48D0F8A00181422CD11C4991F82C10A6
:1033700011F0080F28D113F0020027D153680BB9C0
:1033800093682BB310B4134B197A41F002011972F0
:10339000042199720021D9725468C3F89441C3F88A
:1033A00098119268C3F89C21C822A3F8A821A3F819
:1033B000AA115DF8044B70470D2070470B20704731
:1033C0000C2070470C207047032070470320704783
:1033D00002207047F8050020AC3286548805002092
:1033E000144B1B7A13F0010F19D0042919D113F0D3
:1033F000100F18D00168104A4A400E49D1F8A011A8
:103400008A4212D113F0020011D10A4B1A7A42F00B
:1034100002021A7205229A720022DA7270470D2097
:1034200070470B2070470C2070470C20704703201A
:10343000704700BFF8050020E7BD686A042917D16E
:1034400002680D4B53400D4AD2F8A421934211D18A
:103450000A4B197A6FF3410119720B2199720020FE
:10346000D872197A41F010011972C3F8A02170477F
:103470000B207047022070473CD2E5F2F80500208F
:1034800038B50E4B93F82C3013F0080F14D00C4BBA
:103490001B7A13F0020F01D1032038BD084D2B7A9F
:1034A0006FF341032B720124AC720023EB72FFF720
:1034B00067FBEC722046F0E70320EEE7880500206A
:1034C000F805002038B5194B93F82C3013F001049F
:1034D00021D1042922D1164A117A11F0100F1FD0E0
:1034E0000068144A42401248D0F8A001824219D123
:1034F00013F0080F02D011F0020F15D10C4D2B7AEA
:103500006FF341032B720223AB720023EB72FFF7C0
:10351000B5FBE87200E00024204638BD0B24FBE731
:103520000C24F9E70C24F7E70324F5E788050020CD
:10353000F805002065B1624E38B5214B1B7A13F0B7
:10354000010F34D0032934D91E4A92F82C2012F0EE
:10355000080F30D013F0100F2FD004398CB250F870
:10356000043B9C4201D0022022E0154AD2F8983157
:103570002344D2F89421934201D9022018E0104D3F
:103580000823AB722146FFF7C3FAE872D5F89431ED
:10359000D5F8982193422CBF00230123297A63F3A5
:1035A000410129721444C5F89841002000E00D2023
:1035B00038BD0B20FCE70C20FAE70C20F8E700BF31
:1035C000F8050020880500200A4B1B7A13F0010F34
:1035D0000DD010B5074B1A7A42F002021A72092276
:1035E0009A720024DC72FFF7A9FB204610BD0D2063
:1035F000704700BFF805002038B50B4C237A43F024
:10360000020323720A23A3720025E57204F0AEF9C7
:10361000C4F8A401054B4340054A1360054B04223E
:103620001A60284638BD00BFF8050020BA87CD359E
:10363000A8070020A808002008B502782B4B1A73B1
:103640002B4B00221A6003290ED9043989B230F8B5
:10365000043B013B0A2B42D8DFE803F00C191E2380
:103660002D41412832373C00204BFF221A730222A1
:103670005A730BE0FFF704FF1C4B58731B481C4B9D
:103680001B881C4A417B007BFFF79EFD08BDFFF7AE
:1036900019FF164B5873F1E7FFF732FE134B5873BF
:1036A000ECE7FFF74FFE114B5873E7E7FFF744FFD6
:1036B0000E4B5873E2E7FFF793FE0C4B5873DDE7B0
:1036C000FFF782FF094B5873D8E7FFF795FF074BC9
:1036D0005873D3E7FFF7B2FE044B5873CEE7034BA2
:1036E000FF221A7302225A73D0E700BFF8050020A8
:1036F000A8080020A8070020164AD2F8883043F412
:103700007003C2F888304FF0B0431A6842F00102EB
:103710001A604FF4E0229A601968A2F1A262A2F244
:1037200005120A401A60D3F8942022F00502C3F86B
:103730009420D3F8982022F00102C3F89820064A7A
:10374000DA601A611A6822F480221A6000229A61F3
:10375000704700BF00ED00E000100422114B1B7801
:103760000BB90120704710B5044601F0E9F80D4B84
:103770001A784FF47A73B3FBF2F3B0FBF3F000F076
:10378000E7FB68B90F2C01D901200AE0002221468D
:103790004FF0FF3000F084FB034B1C60002000E082
:1037A000012010BD100000201400002010B5094AAF
:1037B000136843F480731360032000F05FFB042060
:1037C000FFF7CCFF10B10124204610BD0446FEF7E0
:1037D00037F8F9E700400058034B1B78034A11689B
:1037E0000B441360704700BF10000020AC0800209D
:1037F000014B1868704700BFAC080020014B1868E7
:10380000704700BF14000020014B1878704700BFBC
:103810001000002030B583B000230193002800F091
:10382000DA800446436D13B323689A6812F0005F90
:1038300005D09A6822F0204222F03F029A60226866
:10384000936813F0805F1FD1936823F0104323F037
:103850003F0343F080539360604B1B689B09604AB1
:10386000A2FB03239B0901335B00019309E0FCF7F2
:103870009BFE0023A36584F85030D5E7019B013BF4
:103880000193019B002BF9D12268936813F0805FAC
:1038900078D1636D43F010036365A36D43F00103BA
:1038A000A3650120936813F0040300D00123616D28
:1038B00011F0100F40F08880002B40F08580636D80
:1038C00023F4817343F002036365936813F0010FDF
:1038D0000BD1444B9B6813F0010F06D1636842493A
:1038E0008A6822F47C1213438B60627E636B43EA26
:1038F0004233E2681343A268134394F8202043EA5A
:103900000243012A40D0A26A22B102F47072E16A35
:103910000A4313432168CD68344A2A401343CB60DD
:1039200021688B6813F0040300D001238A6812F029
:10393000080200D00122B3B9AAB9227E94F830302F
:103940005B0043EA8232CB6823F4804323F0020316
:103950001343CB6094F83830012B1AD022681369D6
:1039600023F0010313612369012B24D02268136B18
:1039700023F00F031363636D23F0030343F001038C
:10398000636526E000208DE7626A013A43EA42431C
:10399000B9E721680B6923F4FF6323F00403E26BAA
:1039A000256C2A43656C2A43A56C2A43134343F0D4
:1039B00001030B61D7E721680B6B23F00F03E2696A
:1039C000013A13430B63D6E7636D43F0100363655D
:1039D000012003B030BD0120FBE700BF0C00002038
:1039E000632D3E05000004500003045007C0F0FFA3
:1039F000F0B583B00022019290F85020012A00F027
:103A000033820346012280F850200568A86810F030
:103A1000040F09D05A6D42F020025A65012000229D
:103A200083F8502003B0F0BD4C683035220A920074
:103A300002F00C02A85804F01F0E1F2404FA0EF422
:103A400020EA04000C68C4F3846C0CFA0EFC40EA13
:103A50000C00A8501C68A26812F0040200D00122D9
:103A6000A06810F0080000D001200AB900283AD060
:103A70001868826812F0010F40F0F0810A68CD6882
:103A8000D0F8B040C2F3120C24EA0C0405F0180C74
:103A9000AF4D25FA0CF52A40C2F312022243C0F8BA
:103AA000B020C868AB4A904200F0B2800A68AA49C8
:103AB0000A4200F0D581A949896801F0E074A8485C
:103AC000806810F0010F40F07581A648824200F036
:103AD0007781A548824200F09A81A448824200F092
:103AE000AA8100209BE70E688D681434720E920044
:103AF00002F00402A058C6F3045C072606FA0CF68E
:103B000020EA060005FA0CF52843A0504C69186815
:103B1000C268C2F3C102520004FA02F20D69042D18
:103B20000ED00E68603050F82570914C3C4006F085
:103B3000F8463243144344F0004440F8254097E7E8
:103B4000026E046EC4F384640A68C2F3120585BB76
:103B5000C2F38462944234D01C68626E606EC0F31B
:103B600084600A68C2F3120585BBC2F38462904286
:103B700034D01C68A26EA06EC0F384600A68C2F3E1
:103B8000120585BBC2F38462904234D01C68E26E99
:103B9000E06EC0F384600A68C2F3120585BBC2F30D
:103BA000846290427FF464AFE26E22F00042E266EB
:103BB0005EE792FAA2F212B1B2FA82F2CAE72022CA
:103BC000C8E7026E22F000420266C5E792FAA2F24E
:103BD00012B1B2FA82F2CAE72022C8E7626E22F07E
:103BE00000426266C5E792FAA2F212B1B2FA82F21C
:103BF000CAE72022C8E7A26E22F00042A266C5E70B
:103C000092FAA2F212B1B2FA82F2CAE72022C8E70F
:103C10001C680A68C2F31205002D39D1900E0130DC
:103C200000F01F0009288CBF00200120002867D069
:103C3000002D3CD1900E0130800600F0F840002DA0
:103C400041D1960E013606F01F0C012606FA0CF63D
:103C50003043002D46D1920E013202F01F0202EBDA
:103C6000420212050243886804F11406550EAD00A5
:103C700005F004057459C2F304524FF0070C0CFA16
:103C800002FC24EA0C0C90404CEA000070510DE755
:103C900092FAA2F048B1B0FA80F0013000F01F00B3
:103CA00009288CBF00200120C0E72020F5E792FA08
:103CB000A2F030B1B0FA80F00130800600F0F84098
:103CC000BDE72020F8E792FAA2F64EB1B6FA86F6E2
:103CD000013606F01F064FF0010C0CFA06F6B7E7A6
:103CE0002026F5E792FAA2F242B1B2FA82F201324C
:103CF00002F01F0202EB42021205B3E72022F6E7B0
:103D0000D5B9900E0130800600F0F84095BB960EB4
:103D1000013606F01F0C012606FA0CF63043C5BB2F
:103D2000920E013202F01F0202EB42021E3A12050D
:103D300042F00072024396E792FAA2F030B1B0FA74
:103D400080F00130800600F0F840DFE72020F8E73F
:103D5000FFFF070000007F400000088000030450C0
:103D600000000450000052C7000084CB0100008016
:103D700000F0FF0392FAA2F64EB1B6FA86F60136CB
:103D800006F01F064FF0010C0CFA06F6C6E72026D7
:103D9000F5E792FAA2F25AB1B2FA82F2013202F0D7
:103DA0001F0202EB42021E3A120542F00072C1E706
:103DB0002022F3E75A6D42F020025A6501202EE6D8
:103DC00011F4000F7FF485AE1968284A914201D0A2
:103DD000002024E644F400022548816821F0E071C7
:103DE0000A438260234A126892092349A1FB021206
:103DF0009209013202EB42029200019202E0019A22
:103E0000013A0192019A002AF9D1002007E611F047
:103E1000807F7FF462AE1968144A914201D000207D
:103E2000FDE544F080721248816821F0E0710A4398
:103E300082600020F3E511F4800F13D119680B4A5A
:103E4000914201D00020EAE544F4800208488168EC
:103E500021F0E0710A4382600020E0E50020DEE509
:103E60000020DCE50020DAE50220DBE5000004505C
:103E7000000304500C000020632D3E05074AD36860
:103E800023F4E0631B041B0C000200F4E060034316
:103E900043F0BF6343F40033D360704700ED00E0AC
:103EA00000B5194BDB68C3F30223C3F1070CBCF167
:103EB000040F28BF4FF0040C03F1040EBEF1060FEF
:103EC00018D9033B4FF0FF3E0EFA0CFC21EA0C011F
:103ED00099400EFA03F322EA0303194300280BDB8F
:103EE0000901C9B200F1604000F5614080F800139B
:103EF0005DF804FB0023E5E700F00F000901C9B2FB
:103F0000024B1954F4E700BF00ED00E014ED00E0AF
:103F1000002807DB00F01F02400901239340024AFA
:103F200042F82030704700BF00E100E000280CDBC1
:103F300000F01F024009012393402030034A42F859
:103F40002030BFF34F8FBFF36F8F704700E100E069
:103F50000138B0F1807F0BD24FF0E0235861054A61
:103F6000F02182F823100020986107221A6170471F
:103F70000120704700ED00E0002808DB00F01F0280
:103F80004009012393404030014A42F820307047F5
:103F900000E100E0002808DB00F01F0240090123D7
:103FA00093406030014A42F82030704700E100E061
:103FB000002838D010B50446437F1BB30223637733
:103FC00023791BBB2368194A5A612268936823F03E
:103FD00018039360637913BB23684FF0FF321A61B3
:103FE0002268936823F0600361690B439360226841
:103FF000936823F08003A1690B43936001236377E7
:10400000002010BD0377FCF7A3FCD7E7E268A168A6
:10401000204600F00DF80028DCD00120F1E72368ED
:1040200022691A61DCE70120704700BFB71DC10497
:1040300010B41F231C46013B34B103F01F0C21FABE
:104040000CFC1CF0010FF5D0182A22D8DFE802F092
:104050000F212121212121211D2121212121212166
:1040600019212121212121210D00062B15D80368BA
:10407000596101688B6823F018031A438A60002095
:1040800008E0072BF3D9012004E00F2BEFD9012022
:1040900000E001205DF8044B70470120FAE70000C2
:1040A000094B5B69002B01DB00207047064B074A78
:1040B0009A6002F188329A605B69002B01DB002074
:1040C00070470120704700BF00400058230167453A
:1040D000054B5A6942F000425A615B69002B01DBD3
:1040E00001207047002070470040005838B5054651
:1040F000FFF77EFB04461B4B1B6913F4803F06D081
:10410000FFF776FB001BA842F5D3032038BD154B03
:104110001B6913F0010F02D0124A0121116113F43F
:10412000004F05D00F4A4FF40041116123F40043C2
:104130004CF2FA32134001D00A4A13615BB9094BC1
:104140001B6913F4802F0AD0FFF752FB001BA84213
:10415000F5D30320DAE7044A53600120D6E70020B4
:10416000D4E700BF00400058B0080020164B1B6881
:1041700013F4007F10D0144B1A6822F400721A60F6
:104180001A6842F400621A601A6822F400621A6027
:104190001A6842F400721A600B4B1B6813F4806FAC
:1041A00010D0094B1A6822F480621A601A6842F42F
:1041B00080521A601A6822F480521A601A6842F417
:1041C00080621A60704700BF00400058034A53697C
:1041D00023F4FF6323F0020353617047004000584B
:1041E000054A536923F4FF6343EAC00040F480307A
:1041F00040F002005061704700400058F8B51B4B7A
:104200001B78012B2FD004460E46184B01221A7042
:1042100000225A604FF47A70FFF768FF074620B912
:104220002368022B06D0FFF7A1FF104B00221A7063
:104230003846F8BD4FF0FF333360656800E0013564
:104240006368A2681344AB420AD92846FFF7C8FF47
:104250004FF47A70FFF74AFF07460028EFD0356029
:10426000FFF7B4FFDFE70227E2E700BFB008002056
:10427000F0B5002366E085685E000324B44025EABB
:104280000405CC68B4402C438460446824EA0C0CD8
:104290004C68C4F300149C4044EA0C04446062E09F
:1042A000DD08083550F8256003F007044FEA840C58
:1042B0000F2404FA0CF426EA040E0C6904FA0CF438
:1042C00044EA0E0440F8254064E0042400E00024A1
:1042D00004FA0EF42C430CF1020C4F4D45F82C401F
:1042E0004E4C2568D44325EA02064F6817F4801F18
:1042F00001D042EA0506494D2E606D6804EA0506C4
:104300004F6817F4001F01D042EA0506434D6E6066
:10431000D5F8805004EA05064F6817F4803F01D0B5
:1043200042EA05063D4DC5F88060D5F884502C4022
:104330004E6816F4003F01D042EA0504374AC2F83D
:10434000844001330A6832FA03F464D04FF0010C60
:104350000CFA03FC1CEA0202F3D04C6804F00304DC
:10436000013C012C87D94C6804F00304032C0CD0C9
:10437000C4685D004FF0030C0CFA05FC24EA0C0C39
:104380008C68AC4044EA0C04C4604C6804F003043C
:10439000022C85D004684FEA430E4FF0030C0CFA50
:1043A0000EFC24EA0C0C4C6804F0030404FA0EF42E
:1043B00044EA0C0404604C6814F4403FC1D04FEA56
:1043C000930C0CF10205144C54F8255003F003042F
:1043D0004FEA840E0F2404FA0EF425EA0405B0F126
:1043E000904F3FF474AF0E4CA0420ED004F58064A1
:1043F000A0420CD004F58064A0420AD004F5806489
:10440000A0423FF462AF072462E7012460E7022480
:104410005EE703245CE7F0BD00000140000800589F
:10442000000400480AB1816170478162704770479B
:1044300008B5054BDB68034200D108BD024BD860CC
:10444000FFF7F5FFF9E700BF0008005870470000CC
:1044500008B5054BD8681A6822EA00021A6058604D
:10446000FFF7F4FF08BD00BF00150058002859D021
:1044700010B5044690F84130002B43D0242384F833
:1044800041302268136823F00103136063682268D7
:1044900023F0706313612268936823F400439360F0
:1044A000E368012B33D0A368226843F4044393608C
:1044B000E368022B31D02268536843F0007343F461
:1044C000004353602268D36823F40043D360236918
:1044D00062691343A169226843EA0123D360E36957
:1044E000216A22680B4313602268136843F00103BA
:1044F000136000206064202384F84130206384F836
:10450000420010BD80F84030FCF75EFFB6E7A368BC
:10451000226843F400439360CAE723684FF40062C3
:104520005A60C8E70120704790F84130DBB2202B79
:1045300024D190F84030012B22D0012380F8403064
:10454000242380F841300268136823F001031360CC
:104550000268136823F480531360026813681943D8
:1045600011600268136843F001031360202380F890
:104570004130002380F840301846704702207047D1
:104580000220704790F84130DBB2202B22D190F806
:104590004030012B20D0012380F84030242380F8C4
:1045A00041300268136823F0010313600268136846
:1045B00023F4706343EA012111600268136843F039
:1045C00001031360202380F84130002380F840303D
:1045D00018467047022070470220704770477047A6
:1045E000002309E000EB8302054951609A1D00EBAE
:1045F0008202044951600133052BF3D9704700BF93
:10460000DD450008DF450008002303604FF03F133D
:1046100043603F2383607047C0B138B5044690F8CB
:10462000383083B10A4D2846FFF7EEFF2B6843F080
:1046300001132B602046FFF7D3FF002060630123A6
:1046400084F8383038BDFCF767FFEBE7012070478E
:10465000000C0058024A136843F4807313607047DB
:1046600000040058024B186800F4C060704700BF97
:10467000000400582DE9F84305460F4616469946B2
:10468000DDF820802C68A4683C4214BF4FF0010C78
:104690004FF0000CB44514D0B8F1FF3FF2D0FFF753
:1046A000A7F8A0EB0900404502D8B8F1000FE9D106
:1046B000042385F83930EB6B43F00103EB630120F1
:1046C00000E00020BDE8F8830164704770B582B057
:1046D0000446FFF78DF8002C48D0064694F8393090
:1046E000002B38D025682A6822F47062A16801394D
:1046F00042EA01222A60236C0093334600222021E3
:104700002046FFF7B7FF08BB21680B6823F07F4303
:1047100023F010036568E26842EA056213430B6008
:1047200021684A68124B13402569626942EA0542D2
:10473000A5692A4313434B602268136843F00103C1
:1047400013600023E363012384F83930002384F8E5
:10475000383002B070BD84F838302046FCF7CAFF0C
:1047600041F288312046FFF7AFFFBBE70120F0E7B9
:10477000FEF8E0FF30B58DB005468E462B4C94E830
:104780000F000DF1300C0CE90F0005AB04F1100225
:1047900007CA83E807000DF1040C1C3494E80F00ED
:1047A0008CE80F00BEF5007F07D0002314E00CAAB0
:1047B00002EB830353F82C5C1EE00023032B08D884
:1047C0000CAA02EB830252F8102CAA42EFD201335A
:1047D000F4E7002510E00133022B0CD80CAA02EB01
:1047E000830252F81C2CAA42F5D30CAA02EB8303D5
:1047F00053F82C5C00E000250D4A136823F00703F2
:104800002B431360FEF7F4FF0446094B1B6803F0CB
:104810000703AB4206D0FEF7EBFF001B0228F4D9DA
:10482000032000E000200DB030BD00BF488A000822
:104830000040005810B5B02816D90E4BDC6A4FF076
:10484000B043D3F8083103F00F030B4A52F82300AA
:10485000B4FBF0F4FFF706FF01460848A0FB043064
:10486000800CFFF787FF10BDC0F30310014B53F816
:104870002040E4E7608C0008008C000883DE1B43C6
:104880004FF0B0439B6813F00C030DD14FF0B043D1
:104890001B6803F0F003B02B04D81B09254A52F81B
:1048A00023007047B023F8E7042B3ED0082B10D02C
:1048B0004FF0B043DB6803F00303022B31D0032B2E
:1048C0000FD14FF0B0431B6813F4801F2BD11A484F
:1048D00012E04FF0B0431B6813F4801F27D0174835
:1048E00070474FF0B0431B6803F0F003B02B16D8AD
:1048F0001B09104A52F823004FF0B042D368C3F3AB
:10490000062303FB00F0D368C3F302130133B0FBAB
:10491000F3F0D3685B0F0133B0FBF3F07047B023C3
:10492000E6E70648E8E70548E6E704487047024836
:10493000704700BF608C00080048E8010024F400C4
:1049400008B5FFF79DFF4FF0B0439B68C3F3031317
:10495000024A52F82330B0FBF3F008BD008C000887
:10496000002800F0728338B50446036813F0200F66
:104970002DD04FF0B0429368D26802F0030213F0DA
:104980000C0358D00C2B54D0E369002B00F0A0800E
:104990004FF0B042136843F001031360FEF728FFA5
:1049A00005464FF0B0431B6813F0020F00F08880FB
:1049B000636A4FF0B042116821F0F0010B431360BD
:1049C000216A536823F47F4343EA01235360236839
:1049D00013F0010F00F09A804FF0B042936803F09B
:1049E0000C03D26802F00302082B00F08B800C2B22
:1049F00000F085806368B3F5803F00F0B0804FF031
:104A0000B042136823F4803313606368002B00F016
:104A1000AD80FEF7EDFE05464FF0B0431B6813F482
:104A2000003F73D1FEF7E4FE401B6428F4D9032055
:104A300016E3012AA8D1E369002B00F00883606A1D
:104A40004FF0B0431B6803F0F003B02B21D898421D
:104A500021D9FFF7EFFE002840F0FB82636A4FF098
:104A6000B042116821F0F0010B431360216A5368D2
:104A700023F47F4343EA01235360FFF761FFBF4BF9
:104A80001860BF4B1868FEF769FE00289FD0012010
:104A9000E6E2B023DBE74FF0B042136823F0F00307
:104AA00018431060216A536823F47F4343EA0123CB
:104AB0005360606AFFF7BEFE0028DED00120CFE21F
:104AC000FEF796FE401B02287FF66BAF0320C7E27D
:104AD0004FF0B042136823F001031360FEF788FE25
:104AE00005464FF0B0431B6813F0020F3FF46FAF61
:104AF000FEF77EFE401B0228F3D90320B0E2032A12
:104B00007FF478AF6368002B00F0A582236813F070
:104B1000020F54D04FF0B042936803F00C03D268F8
:104B200002F00302042B33D00C2B2FD0E368002BB0
:104B300071D04FF0B042136843F480731360FEF7F6
:104B400057FE05464FF0B0431B6813F4806F2DD11C
:104B5000FEF74EFE401B0228F4D9032080E24FF0FE
:104B6000B042136843F4803313604EE7FEF740FE13
:104B700005464FF0B0431B6813F4003FC6D0FEF764
:104B800037FE401B6428F4D9032069E2022ACDD104
:104B9000E368002B00F0618221694FF0B042536856
:104BA00023F0FE4343EA0163536008E021694FF0BC
:104BB000B042536823F0FE4343EA01635360236825
:104BC00013F0180F00F0DE806269002A00F0A38065
:104BD00013F0100F70D04FF0B043D3F8943013F0AF
:104BE000020F2ED14FF0B042D2F8943043F00103BF
:104BF000C2F89430FEF7FCFD05464FF0B043D3F801
:104C0000943013F0020F1CD1FEF7F2FD401B022876
:104C1000F3D9032024E24FF0B042136823F48073E9
:104C20001360FEF7E5FD05464FF0B0431B6813F433
:104C3000806FC4D0FEF7DCFD401B0228F4D90320AE
:104C40000EE24FF0B042D2F8943043F00403C2F8C1
:104C50009430FEF7CDFD05464FF0B043D3F89430C5
:104C600013F0080F06D1FEF7C3FD401B0328F3D94C
:104C70000320F5E1A1694FF0B042D2F8943023F45B
:104C8000706343EA0123C2F89430D2F8943023F0E1
:104C90000103C2F89430FEF7ABFD05464FF0B04378
:104CA000D3F8943013F0020F6CD0FEF7A1FD401B37
:104CB0000228F3D90320D3E14FF0B042D2F8943068
:104CC00043F00103C2F89430FEF792FD05464FF021
:104CD000B043D3F8943013F0020F06D1FEF788FDED
:104CE000401B0228F3D90320BAE14FF0B042D2F8BA
:104CF000943023F00403C2F894304FF0B043D3F85B
:104D0000943013F0080F3DD0FEF772FD401B0328CE
:104D1000F3D90320A4E14FF0B042D2F8943023F04D
:104D20000403C2F89430FEF763FD05464FF0B0432C
:104D3000D3F8943013F0080F18D14FF0B042D2F8E6
:104D4000943023F00103C2F89430FEF751FD05467C
:104D50004FF0B043D3F8943013F0020F12D0FEF7A7
:104D600047FD401B0228F3D9032079E1FEF740FDFF
:104D7000401B0328DAD9032072E100BF0C00002099
:104D800014000020236813F0040F68D0B74B1B6891
:104D900013F4807F27D0A368012B35D0052B3CD09E
:104DA0004FF0B043D3F8902022F00102C3F89020D6
:104DB000D3F8902022F00402C3F89020A368DBB35C
:104DC000FEF716FD05464FF0B043D3F8903013F0D0
:104DD000020F44D1FEF70CFD401B41F2883398428C
:104DE000F1D903203CE1FFF735FCFEF701FD054654
:104DF0009E4B1B6813F4807FCDD1FEF7F9FC401B5E
:104E00000228F5D903202BE14FF0B042D2F89030C0
:104E100043F00103C2F89030D0E74FF0B043D3F82D
:104E2000902042F00402C3F89020D3F8902042F082
:104E30000102C3F89020C1E7FEF7DAFC05464FF007
:104E4000B043D3F8903013F0020F08D0FEF7D0FC37
:104E5000401B41F288339842F1D9032000E12368D6
:104E600013F0400F33D0A36AC3B14FF0B042D2F871
:104E7000983043F00103C2F89830FEF7B9FC0546BC
:104E80004FF0B043D3F8983013F0020F1FD1FEF764
:104E9000AFFC401B0228F3D90320E1E04FF0B04201
:104EA000D2F8983023F00103C2F89830FEF7A0FC46
:104EB00005464FF0B043D3F8983013F0020F06D0F8
:104EC000FEF796FC401B0228F3D90320C8E0E36AF2
:104ED000002B00F0C4804FF0B042916801F00C014B
:104EE000D268022B19D00C2900F0BD804FF0B042DF
:104EF000136823F080731360FEF77AFC04464FF0CA
:104F0000B0431B6813F0007F00F09780FEF770FC41
:104F1000001B0228F3D90320A2E002F00303206B58
:104F200083420AD00C2900F09C804FF0B0431B68EC
:104F300013F0806F22D0012092E002F07003606BCA
:104F40008342EFD1C2F30623A06B8342EAD102F47D
:104F50007813E06B8342E5D102F06063206C8342FA
:104F6000E0D102F06042636C9A42DBD14FF0B04373
:104F70001B6813F0007F44D0002071E04FF0B04276
:104F8000136823F080731360FEF732FC05464FF080
:104F9000B0431B6813F0007F06D0FEF729FC401BCE
:104FA0000228F4D903205BE04FF0B042D3683049C7
:104FB0001940236B606B0343A06B43EA0023E06B53
:104FC0000343206C0343606C03430B43D3601368BB
:104FD00043F080731360D36843F08053D360FEF7CF
:104FE00007FC04464FF0B0431B6813F0007F06D166
:104FF000FEF7FEFB001B0228F4D9032030E000205E
:105000002EE04FF0B0431A6842F080721A60DA68FE
:1050100042F08052DA60FEF7EBFB04464FF0B043FB
:105020001B6813F0007F06D1FEF7E2FB031B022B87
:10503000F4D9032014E0002012E04FF0B042D16810
:105040000C4B0B40D36000200AE001207047012088
:1050500006E0012004E0012002E0012000E0002041
:1050600038BD0120FCE70120FAE700BF000400582A
:105070008C80C111FCFFFEEE002800F0278170B586
:105080000C460546934B1B6803F007038B422DD358
:105090002B6813F0020F3FD12B6813F0200F53D170
:1050A0002B6813F0400F6AD12B6813F0040F40F007
:1050B00083802B6813F0080F40F097802B6813F063
:1050C000010F00F0DE806B68022B00F0A880032B3C
:1050D00000F0AD80002B40F0B2804FF0B04212687B
:1050E00012F0020F40F0B1800120EEE0794A13681F
:1050F00023F007030B431360FEF77AFB0646754B5C
:105100001B6803F00703A342C2D0FEF771FB801BAC
:105110000228F4D90320D8E0AB684FF0B0418A6888
:1051200022F0F00213438B60FEF762FB06464FF05D
:10513000B0439B6813F4803FAED1FEF759FB801B50
:105140000228F4D90320C0E06B694FF0B041D1F8D8
:10515000082122F0F0021343C1F80831FEF748FBA2
:1051600006464FF0B043D3F8083113F4003F97D10F
:10517000FEF73EFB801B0228F3D90320A5E0A969B6
:105180004FF0B042D2F8083123F00F0343EA111375
:10519000C2F80831FEF72CFB06464FF0B043D3F8B7
:1051A000083113F4803F7FF47FAFFEF721FB801BB3
:1051B0000228F2D9032088E0EB684FF0B0418A68FA
:1051C00022F4E06213438B60FEF712FB06464FF0B9
:1051D000B0439B6813F4003F7FF46BAFFEF708FB0E
:1051E000801B0228F3D903206FE029694FF0B042F9
:1051F000936823F4605343EAC1039360FEF7F8FA1F
:1052000006464FF0B0439B6813F4802F7FF456AFEF
:10521000FEF7EEFA801B0228F3D9032055E04FF089
:10522000B042126812F4003F0FD101204DE04FF060
:10523000B042126812F0007F07D1012045E04FF024
:10524000B042126812F4806F42D04FF0B0418A68C9
:1052500022F0030213438B60FEF7CAFA06464FF0B2
:10526000B0439B6803F00C036A68B3EB820F08D06D
:10527000FEF7BEFA801B41F288339842EFD9032033
:1052800023E0144B1B6803F00703A34215D9114A0E
:10529000136823F0070323431360FEF7A9FA0546BA
:1052A0000C4B1B6803F00703A34206D0FEF7A0FADD
:1052B000401B0228F4D9032007E0FFF741FB064B0F
:1052C0001860FEF79BFAFEF749FA70BD012070479F
:1052D0000120FAE7004000580C00002008B5FFF755
:1052E0002FFB4FF0B0439B68C3F30223034A52F8ED
:1052F000233003F01F03D84008BD00BF408C0008D6
:1053000008B5FFF71DFB4FF0B0439B68C3F3C22302
:10531000034A52F8233003F01F03D84008BD00BFF2
:10532000408C000870B505464FF0B042136823F07A
:1053300080631360FEF75CFA04464FF0B0431B68CD
:1053400013F0006F06D0FEF753FA001B0228F4D9C1
:10535000032400E000240CB1204670BD4FF0B043A0
:105360001A6922F4FE42296842EA01221A611A6986
:1053700022F4781269680A431A611A6842F080625E
:105380001A60FEF735FA06464FF0B0431B6813F07B
:10539000006F05D1FEF72CFA801B0228F4D90324F4
:1053A000002CD9D14FF0B042136929690B43136126
:1053B000D2E770B505464FF0B042136823F0806322
:1053C0001360FEF715FA04464FF0B0431B6813F064
:1053D000006F06D0FEF70CFA001B0228F4D9032454
:1053E00000E000240CB1204670BD4FF0B0431A69B4
:1053F00022F4FE42296842EA01221A611A6922F067
:105400006062A9680A431A611A6842F080621A60F1
:10541000FEF7EEF906464FF0B0431B6813F0006F3D
:1054200005D1FEF7E5F9801B0228F4D90324002CEE
:10543000D9D14FF0B042136929690B431361D2E708
:1054400070B505464FF0B042136823F080631360D7
:10545000FEF7CEF904464FF0B0431B6813F0006F1F
:1054600006D0FEF7C5F9001B0228F4D9032400E09A
:1054700000240CB1204670BD4FF0B0431A6922F4ED
:10548000FE42296842EA01221A611A6922F060424A
:10549000E9680A431A611A6842F080621A60FEF7EE
:1054A000A7F906464FF0B0431B6813F0006F05D113
:1054B000FEF79EF9801B0228F4D90324002CD9D1D1
:1054C0004FF0B042136929690B431361D2E770B5FD
:1054D0000446036813F0400F2FD0036BB3F5800F21
:1054E00021D00AD833B90430FFF71CFF064658B163
:1054F000054624E001252E4621E0B3F5000F1AD021
:10550000B3F5400F0CD10026236B4FF0B041D1F81A
:10551000882022F440021343C1F8883000250EE0B1
:1055200001252E460BE04FF0B042D36843F48033A0
:10553000D3600026E8E70026E6E700252E4623682C
:1055400013F4006F0AD04FF0B043D3F8905005F435
:105550004075236CAB4240F0B7803546236813F0AA
:10556000010F09D0A3694FF0B041D1F8882022F093
:1055700003021343C1F88830236813F0020F09D0E7
:10558000E3694FF0B041D1F8882022F44062134320
:10559000C1F88830236813F0100F0CD0A06A4FF0C8
:1055A000B041D1F88830020C120423EA020343EA26
:1055B0000043C1F88830236813F0200F0CD0E06A54
:1055C0004FF0B041D1F88830020C120423EA0203F4
:1055D00043EA0043C1F88830236813F0040F40F019
:1055E000B480236813F0080F40F0C080236813F4E0
:1055F000807F13D0636B4FF0B041D1F8882022F048
:1056000040621343C1F88830636BB3F1006F00F060
:10561000BE80636BB3F1806F00F0BE80236813F42B
:10562000007F17D0A36BB3F1804F05D0B3F1004FCB
:1056300002D0002B40F0B8804FF0B041D1F8882064
:1056400022F040421343C1F88830A36BB3F1C05F2E
:1056500000F0BC80236813F4806F13D0E36B4FF02D
:10566000B041D1F8882022F040521343C1F888306D
:10567000E36BB3F1005F00F0B080E36BB3F1805FE8
:1056800000F0B080236813F4805F09D0636C4FF0A2
:10569000B041D1F8942022F440421343C1F8943031
:1056A000236813F4005F0DD0E26C4FF0B043596AE9
:1056B00021F030010A435A62A26C596A21F00301B9
:1056C0000A435A62284670BDFEF7C4FF5DB9236CD9
:1056D0004FF0B041D1F8902022F440721343C1F84A
:1056E000903035463AE74FF0B043D3F89020D3F8E6
:1056F000901041F48031C3F89010D3F8901021F449
:105700008031C3F8901022F44072216C0A43C3F830
:105710009020D3F8903013F0010F12D0FEF768F804
:1057200005464FF0B043D3F8903013F0020F0AD182
:10573000FEF75EF8401B41F288339842F1D9032509
:105740000CE735460AE7354608E7236A4FF0B040D4
:10575000D0F88820190901F47F2122EA01021B01F7
:1057600003F47F231343C0F888303AE7636A4FF0AD
:10577000B040D0F88820190901F47F2122EA010203
:105780001B0103F47F231343C0F888302EE7CB6856
:1057900043F08073CB603CE7201DFFF70AFE002832
:1057A0003FF43CAF054639E723F080534FF0B04259
:1057B000D2F8881021F04041C2F88810D2F8881041
:1057C00021F040610B43C2F888303EE74FF0B04211
:1057D000D36843F08073D3603CE7CB6843F48033F5
:1057E000CB604AE7201DFFF72BFE00283FF44AAFAD
:1057F000054647E738B504460268D36823F0A0039E
:10580000D360FDF7F5FF05462368DB6813F0200F32
:1058100007D1FDF7EDFF401BB0F57A7FF4D90320E7
:1058200000E0002038BD38B50368DA6812F0400F98
:1058300001D0002038BD04464FF0FF32DA60FDF79A
:10584000D7FF05462368DB6813F0400F07D1FDF74B
:10585000CFFF431BB3F57A7FF4D90320EAE700209A
:10586000E8E738B5002867D0044690F82130002BCF
:1058700045D0022384F821302368CA225A62236863
:1058800053225A622046FFF7CEFF054600283BD13F
:105890002268936823F4E00323F0400393602168B7
:1058A0008A68636820690343A069034313438B60DC
:1058B0002368E2681A6122681369A16843EA014318
:1058C00013612268D36823F08003D3602268D36C0D
:1058D00023F00303D3642168CB6CE269606902435F
:1058E0001343CB6423689B6813F0200F14D0236804
:1058F000FF225A62012384F82130284638BD80F8FF
:105900002030FBF765FFB4E72368FF225A620423C7
:1059100084F821300125F0E72046FFF76BFF0028CF
:10592000E5D02368FF225A62042384F82130002343
:1059300084F820300125E0E70125DEE7F8B590F88E
:105940002030012B77D004460E461546012380F8FF
:105950002030022380F821300368CA225A6203688B
:1059600053225A6203689B6813F4806F17D0FDF7C7
:105970003FFF07462368DB6813F0040F0FD0FDF7E5
:1059800037FFC01BB0F57A7FF4D92368FF225A6233
:10599000032084F82100002384F820304AE02268A4
:1059A000936823F4806393602268D368DBB263F466
:1059B0009063D360FDF71CFF07462368DA6812F096
:1059C000040F0FD1FDF714FFC01BB0F57A7FF4D997
:1059D0002368FF225A62032084F82100002384F800
:1059E000203027E05E612268936823F0070393600C
:1059F000226893681D439560104BD3F8802042F4D1
:105A00000022C3F880201A6842F400221A6022683B
:105A1000936843F4804393602268936843F48063FF
:105A200093602368FF225A62012384F8213000200A
:105A300084F82000F8BD0220FCE700BF00080058F1
:105A400030B4036A23F001030362036A4568826984
:105A500022F4803222F073020C68224323F0020306
:105A60008C682343154CA04207D004F5E054A042B3
:105A700003D0A4F58064A04205D123F00803CC68CC
:105A8000234323F004030D4CA04207D004F5C05477
:105A9000A04203D004F58064A04207D125F4407CE5
:105AA0004C6944EA0C0C8D6945EA0C05456082613D
:105AB0004A684263036230BC704700BF002C01405B
:105AC00030B4036A23F480730362036A4468C269D2
:105AD00022F4803222F073020D682A4323F400730B
